:020000040800F2
:1000000000000120211F000869190008711900086B
:1000100079190008811900088919000800000000FA
:10002000000000000000000000000000911900081E
:100030009F19000800000000AD190008BB19000856
:10004000711F0008711F0008711F0008711F000850
:10005000711F0008711F0008711F0008711F000840
:10006000711F0008711F0008711F0008711F000830
:10007000C9190008711F0008711F0008711F0008CE
:10008000711F0008711F0008711F0008711F000810
:10009000711F0008711F0008711F0008711F000800
:1000A000711F0008711F0008711F0008711F0008F0
:1000B000711F00080000000000000000711F000810
:1000C000711F00080000000000000000711F000800
:1000D00000000000711F0008711F000800000000F0
:1000E000711F0008711F00080000000000000000E0
:1000F0000000000000000000000000000000000000
:10010000000000000000000000000000711F000857
:100110000000000000000000711F0008711F0008AF
:10012000711F0008711F0008711F0008711F00086F
:10013000711F000800000000000000000000000027
:10014000711F0008711F0008711F0008711F00084F
:10015000711F0008711F0008711F0008711F00083F
:10016000711F0008711F0008711F000800000000C7
:10017000711F0008711F000800000000000000004F
:0C018000711F0008711F0008711F0008AB
:1001900010B5054C237833B9044B13B10448AFF3C1
:1001A00000800123237010BDD40100200000000056
:1001B00034A3000808B5034B1BB103490348AFF350
:1001C000008008BD00000000D801002034A3000812
:1001D00001F0FF01102A2BDB10F0070F08D010F8F8
:1001E000013B013A8B422DD010F0070F42B3F6D1FC
:1001F000F0B441EA012141EA014122F007047FF015
:1002000000070023F0E80256083C85EA010586EA6B
:10021000010685FA47F5A3FA87F586FA47F6A5FAA7
:1002200087F68EB9EED1F0BC01F0FF0102F00702B3
:1002300032B110F8013B013A83EA010313B1F8D15E
:100240000020704701387047002D06BF354603383F
:10025000073815F0010F07D1013015F4807F02BF78
:10026000013015F4C03F0130F0BC0138704700BFC9
:10027000034613F8012B002AFBD1181A01387047E6
:1002800081F0004102E000BF83F0004330B54FEA47
:1002900041044FEA430594EA050F08BF90EA020FB4
:1002A0001FBF54EA000C55EA020C7FEA645C7FEA47
:1002B000655C00F0E2804FEA5454D4EB5555B8BF6A
:1002C0006D420CDD2C4480EA020281EA030382EADB
:1002D000000083EA010180EA020281EA0303362D6D
:1002E00088BF30BD11F0004F4FEA01314FF4801C40
:1002F0004CEA113102D0404261EB410113F0004F52
:100300004FEA03334CEA133302D0524263EB430308
:1003100094EA050F00F0A780A4F10104D5F1200EA6
:100320000DDB02FA0EFC22FA05F2801841F1000101
:1003300003FA0EF2801843FA05F359410EE0A5F1D5
:1003400020050EF1200E012A03FA0EFC28BF4CF006
:10035000020C43FA05F3C01851EBE37101F00045BC
:1003600007D54FF0000EDCF1000C7EEB00006EEBC9
:100370000101B1F5801F1BD3B1F5001F0CD3490853
:100380005FEA30004FEA3C0C04F101044FEA4452AA
:1003900012F5800F80F09A80BCF1004F08BF5FEA31
:1003A000500C50F1000041EB045141EA050130BD11
:1003B0005FEA4C0C404141EB0101013C28BFB1F523
:1003C000801FE9D291F0000F04BF01460020B1FA6E
:1003D00081F308BF2033A3F10B03B3F120020CDA41
:1003E0000C3208DD02F1140CC2F10C0201FA0CF01F
:1003F00021FA02F10CE002F11402D8BFC2F1200C84
:1004000001FA02F120FA0CFCDCBF41EA0C01904039
:10041000E41AA2BF01EB0451294330BD6FEA040482
:100420001F3C1CDA0C340EDC04F11404C4F120026D
:1004300020FA04F001FA02F340EA030021FA04F37F
:1004400045EA030130BDC4F10C04C4F1200220FAD6
:1004500002F001FA04F340EA0300294630BD21FA14
:1004600004F0294630BD94F0000F83F4801306BFDA
:1004700081F480110134013D4EE77FEA645C18BFCE
:100480007FEA655C29D094EA050F08BF90EA020F65
:1004900005D054EA000C04BF1946104630BD91EA5D
:1004A000030F1EBF0021002030BD5FEA545C05D160
:1004B0004000494128BF41F0004130BD14F580049F
:1004C0003CBF01F5801130BD01F0004545F0FE4113
:1004D00041F470014FF0000030BD7FEA645C1ABF48
:1004E000194610467FEA655C1CBF0B46024650EA7F
:1004F000013406BF52EA033591EA030F41F40021AB
:1005000030BD00BF90F0000F04BF0021704730B530
:100510004FF4806404F132044FF000054FF0000105
:1005200050E700BF90F0000F04BF0021704730B5C6
:100530004FF4806404F1320410F0004548BF40429B
:100540004FF000013EE700BF42004FEAE2014FEAF0
:1005500031014FEA02701FBF12F07F4393F07F4FCB
:1005600081F06051704732F07F4208BF704793F0CE
:100570007F4F04BF41F40021704730B54FF46074E1
:1005800001F0004521F000411CE700BF50EA0102E4
:1005900008BF704730B54FF000050AE050EA01028D
:1005A00008BF704730B511F0004502D5404261EBFD
:1005B00041014FF4806404F132045FEA915C3FF43E
:1005C000D8AE4FF003025FEADC0C18BF03325FEADB
:1005D000DC0C18BF033202EBDC02C2F1200300FA8C
:1005E00003FC20FA02F001FA03FE40EA0E0021FAB1
:1005F00002F11444BDE600BF70B54FF0FF0C4CF49F
:10060000E06C1CEA11541DBF1CEA135594EA0C0F50
:1006100095EA0C0F00F0DEF82C4481EA030621EA8B
:100620004C5123EA4C5350EA013518BF52EA0335C6
:1006300041F4801143F4801338D0A0FB02CE4FF078
:100640000005E1FB02E506F00042E0FB03E54FF0A8
:100650000006E1FB03569CF0000F18BF4EF0010EA0
:10066000A4F1FF04B6F5007F64F5407404D25FEA9C
:100670004E0E6D4146EB060642EAC62141EA55514F
:100680004FEAC52040EA5E504FEACE2EB4F1FD0C91
:1006900088BFBCF5E06F1ED8BEF1004F08BF5FEA0F
:1006A000500E50F1000041EB045170BD06F00046C1
:1006B00046EA010140EA020081EA0301B4EB5C046E
:1006C000C2BFD4EB0C0541EA045170BD41F4801166
:1006D0004FF0000E013C00F3AB8014F1360FDEBF8B
:1006E000002001F0004170BDC4F10004203C35DA67
:1006F0000C341BDC04F11404C4F1200500FA05F3EA
:1007000020FA04F001FA05F240EA020001F000428A
:1007100021F0004110EBD37021FA04F642EB060100
:100720005EEA430E08BF20EAD37070BDC4F10C042A
:10073000C4F1200500FA04F320FA05F001FA04F2EE
:1007400040EA020001F0004110EBD37041F10001DA
:100750005EEA430E08BF20EAD37070BDC4F12005E5
:1007600000FA05F24EEA020E20FA04F301FA05F24D
:1007700043EA020321FA04F001F0004121FA04F2F5
:1007800020EA020000EBD3705EEA430E08BF20EAC5
:10079000D37070BD94F0000F0FD101F000464000FF
:1007A00041EB010111F4801F08BF013CF7D041EA81
:1007B000060195F0000F18BF704703F00046520085
:1007C00043EB030313F4801F08BF013DF7D043EA56
:1007D0000603704794EA0C0F0CEA135518BF95EA0C
:1007E0000C0F0CD050EA410618BF52EA4306D1D193
:1007F00081EA030101F000414FF0000070BD50EAB2
:10080000410606BF1046194652EA430619D094EA3B
:100810000C0F02D150EA013613D195EA0C0F05D125
:1008200052EA03361CBF104619460AD181EA030179
:1008300001F0004141F0FE4141F470014FF0000031
:1008400070BD41F0FE4141F4780170BD70B54FF0CC
:10085000FF0C4CF4E06C1CEA11541DBF1CEA13554C
:1008600094EA0C0F95EA0C0F00F0A7F8A4EB05042E
:1008700081EA030E52EA03354FEA013100F0888025
:100880004FEA03334FF0805545EA131343EA1263EE
:100890004FEA022245EA111545EA10654FEA0026A3
:1008A0000EF000419D4208BF964244F1FD0404F55C
:1008B000407402D25B084FEA3202B61A65EB0305B8
:1008C0005B084FEA32024FF480104FF4002CB6EB75
:1008D000020E75EB030E22BFB61A754640EA0C00F5
:1008E0005B084FEA3202B6EB020E75EB030E22BF35
:1008F000B61A754640EA5C005B084FEA3202B6EB76
:10090000020E75EB030E22BFB61A754640EA9C0034
:100910005B084FEA3202B6EB020E75EB030E22BF04
:10092000B61A754640EADC0055EA060E18D04FEAC2
:10093000051545EA16754FEA06164FEAC30343EA62
:1009400052734FEAC2025FEA1C1CC0D111F4801F2F
:100950000BD141EA00014FF000004FF0004CB6E728
:1009600011F4801F04BF01430020B4F1FD0C88BFC7
:10097000BCF5E06F3FF6AFAEB5EB030C04BFB6EBD2
:10098000020C5FEA500C50F1000041EB045170BDC5
:100990000EF0004E4EEA113114EB5C04C2BFD4EBF2
:1009A0000C0541EA045170BD41F480114FF0000E76
:1009B000013C90E645EA060E8DE60CEA135594EAF2
:1009C0000C0F08BF95EA0C0F3FF43BAF94EA0C0FF5
:1009D0000AD150EA01347FF434AF95EA0C0F7FF46A
:1009E00025AF104619462CE795EA0C0F06D152EABE
:1009F00003353FF4FDAE1046194622E750EA4106A2
:100A000018BF52EA43067FF4C5AE50EA41047FF4B2
:100A10000DAF52EA43057FF4EBAE12E74FF0FF3C17
:100A200006E000BF4FF0010C02E000BF4FF0010CE8
:100A30004DF804CD4FEA410C7FEA6C5C4FEA430C61
:100A400018BF7FEA6C5C1BD001B050EA410C0CBFB0
:100A500052EA430C91EA030F02BF90EA020F002012
:100A6000704710F1000F91EA030F58BF994208BF79
:100A700090422CBFD8176FEAE37040F00100704736
:100A80004FEA410C7FEA6C5C02D150EA013C07D18D
:100A90004FEA430C7FEA6C5CD6D152EA033CD3D0D8
:100AA0005DF8040B704700BF8446104662468C46D2
:100AB0001946634600E000BF01B5FFF7B7FF002805
:100AC00048BF10F1000F01BD4DF808EDFFF7F4FF2E
:100AD0000CBF012000205DF808FB00BF4DF808EDB9
:100AE000FFF7EAFF34BF012000205DF808FB00BFDC
:100AF0004DF808EDFFF7E0FF94BF012000205DF8FE
:100B000008FB00BF4DF808EDFFF7CEFF94BF0120B2
:100B100000205DF808FB00BF4DF808EDFFF7C4FFAB
:100B200034BF012000205DF808FB00BF4FEA410CF4
:100B30007FEA6C5C02D150EA013C0AD14FEA430CD7
:100B40007FEA6C5C02D152EA033C02D14FF0000014
:100B500070474FF0010070474FEA410212F5001252
:100B600015D211D56FF47873B3EB625212D94FEAF4
:100B7000C12343F0004343EA505311F0004F23FADE
:100B800002F018BF404270474FF00000704750EA33
:100B9000013005D111F0004008BF6FF000407047F0
:100BA0004FF00000704700BF4A0011D212F500124A
:100BB00011D20DD56FF47873B3EB62520ED44FEAB5
:100BC000C12343F0004343EA505323FA02F0704735
:100BD0004FF00000704750EA013002D14FF0FF3073
:100BE00070474FF0000070474FEA4102B2F1E04316
:100BF00024BFB3F5001CDCF1FE5C0DD901F0004C04
:100C00004FEAC0024CEA5070B2F1004F40EB830053
:100C100008BF20F00100704711F0804F21D113F17F
:100C20003872BCBF01F00040704741F480114FEAB8
:100C30005252C2F11802C2F1200C10FA0CF320FA41
:100C400002F018BF40F001004FEAC1234FEAD3235E
:100C500003FA0CFC40EA0C0023FA02F34FEA4303C8
:100C6000CCE77FEA625307D150EA01331EBF4FF051
:100C7000FE4040F44000704701F0004040F0FE406C
:100C800040F40000704700BF53B94AB9002908BFBB
:100C900000281CBF4FF0FF314FF0FF3000F0A0B92B
:100CA000ADF1080C6DE904CE00F03CF8DDF804E08D
:100CB000DDE9022304B0704738B500220023044662
:100CC0000D46FFF70BFF28B920462946BDE83840FE
:100CD00000F00AB8204605F1004100F005F8404256
:100CE00061EB410138BD00BFD0B50C4B0022064678
:100CF0000F46FFF781FCFFF757FF0446FFF702FCA2
:100D0000074B0022FFF778FC02460B463046394677
:100D1000FFF7BAFAFFF748FF2146D0BD0000F03DCB
:100D20000000F0412DE9F047089D0C46002B4ED104
:100D300094468C458646B2FA82F262D94AB1C2F133
:100D40002003914020FA03F30CFA02FC194300FA45
:100D500002FE4FEA1C471FFA8CF6B1FBF7F44FEA8C
:100D60001E4307FB141143EA014304FB06F19942B9
:100D70000AD91CEB030304F1FF3080F01281994281
:100D800040F20F81023C6344591A1FFA8EF3B1FB03
:100D9000F7F007FB101143EA014300FB06F69E4201
:100DA0000AD91CEB030300F1FF3180F0FC809E4266
:100DB00040F2F980634402389B1B40EA0440002162
:100DC0001DB1D3400022C5E90032BDE8F0878B4257
:100DD00005D90DB1C5E9000100210846F5E7B3FAD0
:100DE00083F1002946D1A34202D39042C0F0F080A3
:100DF000861A64EB03030120002DE6D0C5E90063E9
:100E0000E3E7002A40F09080A1EB0C044FEA1C4875
:100E10001FFA8CF70121B4FBF8F64FEA1E4308FBDA
:100E2000164443EA044307FB06F0984208D91CEB3A
:100E3000030306F1FF3402D2984200F2CD80264629
:100E40001C1A1FFA8EF3B4FBF8F008FB104443EAB7
:100E5000044300FB07F79F4208D91CEB030300F192
:100E6000FF3402D29F4200F2B0802046DB1B40EAF2
:100E70000640A5E7C1F120068B4022FA06F71F4382
:100E800020FA06FC04FA01F343EA0C03F44000FAEA
:100E900001F8380C4FEA1349B4FBF0FE1FFA87FC47
:100EA00000FB1E4449EA04440EFB0CF9A14502FA7A
:100EB00001F20AD93C190EF1FF3A80F08480A14575
:100EC00040F28180AEF1020E3C44A4EB09041FFA0B
:100ED00083F9B4FBF0F300FB134449EA044403FB39
:100EE0000CFCA44507D93C1903F1FF3067D2A44597
:100EF00065D9023B3C4443EA0E40A0FB0293A4EBBD
:100F00000C049C42CE469C4651D34ED055B1B8EB12
:100F10000E0364EB0C0404FA06F6CB401E43CC40EF
:100F2000C5E90064002150E7C2F1200320FA03F173
:100F30000CFA02FC24FA03F394400C434FEA1C48D9
:100F400000FA02FE1FFA8CF7B3FBF8F008FB103131
:100F5000230C43EA014300FB07F1994208D91CEB3B
:100F6000030300F1FF362CD299422AD90238634498
:100F70005B1AA4B2B3FBF8F108FB113344EA034453
:100F800001FB07F3A34208D91CEB040401F1FF366F
:100F900013D2A34211D902396444E41A41EA004150
:100FA00039E70446F0E6084606E7C845AED2B9EB95
:100FB000020E63EB070C0138A8E73146EDE7034664
:100FC00099E73046D4E7D6467FE7634402384DE7D9
:100FD0000646234608460FE7023E634430E700BF5B
:100FE000704700BF80B483B000AF03460A46FB7170
:100FF0001346BB71FB79BA7902FB03F31B12DBB218
:1010000018460C37BD465DF8047B704790B583B039
:1010100000AF0446084611461A462346FB710346B4
:10102000BB710B467B7113463B71FA7913465B002B
:101030009C187B79B0211846FFF7D4FF03461A4667
:101040000D4B1A55FA7913465B00134401330A49D4
:10105000BA79CA54FA7913465B0013449C1C3B7955
:10106000F0211846FFF7BEFF03461A46024B1A55F9
:1010700000BF0C37BD4690BDF001002080B584B0A4
:1010800000AF0346FB710B46BB7113467B71002317
:10109000FB6009E0FB68D8B27B79BA79F979FFF790
:1010A000B5FFFB680133FB60FB680B2BF2D900BF77
:1010B00000BF1037BD4680BD80B582B000AF4D4B3C
:1010C0001B68002B05D14C4B93F82530DBB2012B6C
:1010D00014D00023FB7106E0FB79484A0021D1546B
:1010E000FB790133FB71FB792F2BF5D9414B0022A2
:1010F0001A600021424803F0F5F878E000233B60D5
:1011000069E0404B1B781A463B6802FA03F303F090
:101110008003002B01DD262100E01321374A3B68C4
:1011200013440A461A70374B5B781A463B6802FA3A
:1011300003F303F08003002B01DD262100E01321DF
:101140003B6808332D4AD1542E4B9B781A463B6896
:1011500002FA03F303F08003002B01DD262100E0F7
:1011600013213B681033254AD154264BDB781A46AD
:101170003B6802FA03F303F08003002B01DD262114
:1011800000E013213B6818331C4AD1541D4B1B79D6
:101190001A463B6802FA03F303F08003002B01DDDB
:1011A000262100E013213B682033144AD154154B0B
:1011B0005B791A463B6802FA03F303F08003002BC5
:1011C00001DD262100E013213B6828330B4AD1546E
:1011D0003B6801333B603B68072B92D93023074AB9
:1011E0000021074802F086FE024B02221A600837EF
:1011F000BD4680BD440200209C0200201402002055
:1012000050020020F001002080B485B000AF78606B
:10121000394B1B680B2B53D80023FB6047E0364B40
:101220001A6813465B001344344AD35C1A46FB68C1
:1012300002FA03F303F08003002B01DD262100E016
:1012400013212F4AFB6813440A461A702A4B1A6866
:1012500013465B0013440133284AD35C1A46FB68EB
:1012600002FA03F303F08003002B01DD262100E0E6
:101270001321FB680833224AD1541F4B1A681346C6
:101280005B00134402331D4AD35C1A46FB6802FA22
:1012900003F303F08003002B01DD262100E013217E
:1012A000FB681033164AD154FB680133FB60FB68BE
:1012B000072BB4D9104B1B6801330F4A136015E09C
:1012C0000D4B1B680D2B11D80023FB7206E0FB7A37
:1012D0000B4A0021D154FB7A0133FB72FB7A172BA6
:1012E000F5D9054B1B680133034A136000BF14375F
:1012F000BD465DF8047B704744020020F0010020E9
:101300001402002080B584B000AF78603C4B1B68AD
:101310000B2B52D80023FB6046E0394B1A6813466A
:101320005B001344374AD35C1A46FB6802FA03F3A6
:1013300003F08003002B01DD262100E01321FB6870
:101340001833314AD1542E4B1A6813465B001344AC
:1013500001332C4AD35C1A46FB6802FA03F303F00C
:101360008003002B01DD262100E01321FB682033E0
:10137000254AD154224B1A6813465B0013440233AA
:10138000204AD35C1A46FB6802FA03F303F0800399
:10139000002B01DD262100E01321FB6828331A4AC7
:1013A000D154FB680133FB60FB68072BB5D9144BA4
:1013B0001B680133124A13601DE0114B1B680D2B93
:1013C00012D81823FB7206E0FB7A0F4A0021D15491
:1013D000FB7A0133FB72FB7A2F2BF5D9084B1B6884
:1013E0000133074A136006E0054B00221A60002112
:1013F000064802F077FF00BF1037BD4680BD00BF32
:1014000044020020F00100201402002050020020BD
:1014100080B487B000AF0346FB710B46BB71134627
:101420007B717B79002B01D10023B1E07B799BB2EA
:1014300001339BB2BB8197F90530002B09DBBB89D7
:101440009BB25B00BA7902FB03F31B12DBB2FB74A5
:101450000AE0BB899BB25B00C3F50073BA7902FB5B
:1014600003F31B12DBB2FB74FB799BB21A465200EA
:1014700013445B009BB27B817B899BB2DBB23B75E3
:101480003B7DDBB201339BB2FB817B899BB203F4D2
:101490008073002B09D1FB899BB2FA7CD2B202FB8C
:1014A00003F31B12DBB2BB740AE0FB899BB2C3F5EA
:1014B0008073FA7CD2B202FB03F31B12DBB2BB7463
:1014C000FB7CDBB25B08DBB27A79D31ADBB27B74CC
:1014D0007B899BB21B0A9BB2042B3AD801A252F81B
:1014E00023F000BFF91400080B1500081D150008B3
:1014F0002F15000841150008FB7CDBB2FB75BB7C97
:10150000DBB2BB7500237B752CE0BB7CDBB2FB75CB
:10151000FB7CDBB2BB7500237B7523E00023FB75EE
:10152000FB7CDBB2BB75BB7CDBB27B751AE00023B6
:10153000FB75BB7CDBB2BB75FB7CDBB27B7511E062
:10154000BB7CDBB2FB750023BB75FB7CDBB27B7520
:1015500008E0FB7CDBB2FB750023BB75BB7CDBB218
:101560007B7500BFFB7DDBB21A467B7CDBB213448C
:101570001A04BB7DDBB219467B7CDBB20B441B0239
:1015800013437A7DD2B211467A7CD2B20A44134315
:1015900018461C37BD465DF8047B704780B586B0A1
:1015A00000AF0346FB800B467B7113463B7100F096
:1015B00049FD3861FB884FF47A7202FB03F31A4647
:1015C0003B691344FB602EE00023FB751CE0FA7DB1
:1015D0003B7912FB03F3DAB21D4B1B781344DBB2E9
:1015E0007F22FF211846FFF713FFB860BB681B0C72
:1015F000D9B2BB681B0ADAB2BB68DBB2F87DFFF771
:1016000005FDFB7D0133FB75FA7D7B799A42DED3C4
:101610000F4B1B780133DAB20D4B1A70FFF74CFDFC
:101620000A2000F01BFD00F00DFD0246FB6893420E
:10163000CAD8002200210020FFF720FDFFF73CFD63
:10164000012000F00BFD00BF1837BD4680BD00BF74
:101650004802002080B582B000AF0C4B9B6C0B4A57
:1016600043F001039364094B9B6C03F001037B601F
:101670007B68002200210C2000F0EFFD0C2000F020
:1016800008FE00BF0837BD4680BD00BF0010024005
:1016900080B588B000AF07F10C0300221A605A60D1
:1016A0009A60DA601A611D4BDB6C1C4A43F004033C
:1016B000D3641A4BDB6C03F00403BB60BB68174BAD
:1016C000DB6C164A43F00103D364144BDB6C03F06C
:1016D00001037B607B68114BDB6C104A43F0020313
:1016E000D3640E4BDB6C03F002033B603B680022CB
:1016F00008210B4801F08AF90823FB6001233B61B4
:1017000000237B610023BB6107F10C0319460448E9
:1017100001F012F800BF2037BD4680BD0010024026
:101720000004004880B582B000AF00F022FC00F059
:101730008FF8FFF7ADFFFFF78DFF00F057FB00F0CC
:1017400025FA002200210020FFF798FCFFF7B4FCE7
:101750000A2000F083FC0C220C211420FFF71EFF4E
:1017600000220021FF20FFF789FCFFF7A5FC4FF4C2
:10177000FA6000F073FC0022FF210020FFF77EFCDE
:10178000FFF79AFC4FF4FA6000F068FCFF2200219A
:101790000020FFF773FCFFF78FFC4FF4FA6000F0B6
:1017A0005DFC0023FB7112E0002200210020FFF706
:1017B00065FCF8790023FF22FF21FFF727FCFFF7E4
:1017C0007BFCC82000F04AFCFB790133FB71FB79FC
:1017D0000B2BE9D90023BB7116E000220021FF206A
:1017E000FFF74CFCFFF768FC642000F037FCFF2299
:1017F00000210020FFF742FCFFF75EFC642000F0B0
:101800002DFCBB790133BB71BB79042BE5D90023D7
:101810007B7118E0FF22FF21FF20FFF72FFCFFF76D
:101820004BFC4FF4FA7000F019FC0022002100205C
:10183000FFF724FCFFF740FC4FF4FA7000F00EFCB9
:101840007B7901337B717B79042BE3D983E700003B
:1018500080B596B000AF07F114034422002118466A
:1018600005F091F93B4600221A605A609A60DA60EE
:101870001A614FF4007001F0FFF80346002B01D00D
:1018800000F048F801F0DAF8214BD3F89030204A04
:1018900023F01803C2F8903014237B610123FB610D
:1018A0000123FB6200233B6360237B630223FB6312
:1018B00001233B6401237B641623BB640723FB6481
:1018C00002233B6502237B6507F11403184601F0F0
:1018D00029F90346002B01D000F01CF80F233B60D0
:1018E00003237B600023BB600023FB6000233B617C
:1018F0003B460221184601F029FD0346002B01D08A
:1019000000F008F802F03CF900BF5837BD4680BD32
:101910000010024080B400AF72B600BF00BFFDE708
:1019200080B483B000AF0F4B1B6E0E4A43F001032F
:1019300013660C4B1B6E03F001037B607B68094B45
:101940009B6D084A43F080539365064B9B6D03F0F3
:1019500080533B603B6800BF0C37BD465DF8047B9D
:10196000704700BF0010024080B400AF00BFFDE729
:1019700080B400AF00BFFDE780B400AF00BFFDE75B
:1019800080B400AF00BFFDE780B400AF00BFFDE74B
:1019900080B400AF00BFBD465DF8047B704780B4E3
:1019A00000AF00BFBD465DF8047B704780B400AF58
:1019B00000BFBD465DF8047B704780B500AF00F006
:1019C0002DFB00BF80BD000080B500AF024800F0D5
:1019D000D4FD00BF80BD00BF9C02002080B400AFDA
:1019E00001231846BD465DF8047B704780B582B080
:1019F00000AF7860396005F019F9034616221A60C5
:101A00004FF0FF3318460837BD4680BD80B582B021
:101A100000AF78604FF0FF317868FFF7E7FF00BF55
:101A2000FDE780B586B000AFF860B9607A6000234A
:101A30007B610AE0AFF300800146BB685A1CBA60C4
:101A4000CAB21A707B6901337B617A697B689A42FA
:101A5000F0DB7B6818461837BD4680BD80B586B080
:101A600000AFF860B9607A6000237B6109E0BB6871
:101A70005A1CBA601B781846AFF300807B690133AB
:101A80007B617A697B689A42F1DB7B68184618377C
:101A9000BD4680BD80B483B000AF78604FF0FF33A7
:101AA00018460C37BD465DF8047B704780B483B0A0
:101AB00000AF786039603B684FF400525A600023F1
:101AC00018460C37BD465DF8047B704780B483B080
:101AD00000AF7860012318460C37BD465DF8047BE3
:101AE000704780B485B000AFF860B9607A600023B9
:101AF00018461437BD465DF8047B704780B586B044
:101B000000AF7860144A154BD31A7B617B693B6147
:101B1000134B1B68002B02D1114B124A1A60104B59
:101B20001A687B6813443A699A4207D205F07EF836
:101B300003460C221A604FF0FF3309E0084B1B6884
:101B4000FB60074B1A687B681344054A1360FB6807
:101B500018461837BD4680BD000001200004000073
:101B60004C020020C004002080B400AF064BD3F824
:101B70008830054A43F47003C2F8883000BFBD4680
:101B80005DF8047B704700BF00ED00E080B59AB0BF
:101B900000AF07F1580300221A605A609A60DA60B9
:101BA00007F14C0300221A605A609A6007F1300373
:101BB00000221A605A609A60DA601A615A619A616A
:101BC0003B1D2C220021184604F0DDFF434B444A04
:101BD0001A60424B00225A60404B00229A603F4BF1
:101BE0003622DA603D4B00221A613C4B00225A61DA
:101BF0003A4B00229A61394802F0C4F80346002BA0
:101C000001D0FFF787FE4FF48053BB6507F15803FF
:101C10001946324802F062FD0346002B01D0FFF75F
:101C200079FE2E4802F005F90346002B01D0FFF79C
:101C300071FE0023FB6400233B6500237B6507F1F5
:101C40004C031946254803F09BFA0346002B01D0AC
:101C5000FFF760FE60233B6300237B630023BB63CD
:101C60000023FB6300233B6400237B640023BB64ED
:101C700007F1300300221946184802F01BFC034606
:101C8000002B01D0FFF746FE00237B600023BB60E2
:101C90000023FB6000233B6100237B614FF4005372
:101CA000BB610023FB6100233B624FF000737B624A
:101CB0000023BB620023FB623B1D1946074803F06B
:101CC000C5FA0346002B01D0FFF724FE034800F0BD
:101CD00055F800BF6837BD4680BD00BF50020020E8
:101CE000002C014080B584B000AF78607B681B6831
:101CF0001E4A934236D11E4B1B6E1D4A43F40063AD
:101D000013661B4B1B6E03F40063FB60FB68194BEF
:101D1000194A1A60174B07225A60164B10229A6014
:101D2000144B0022DA60134B80221A61114B4FF4DE
:101D300000725A610F4B00229A610E4B2022DA6129
:101D40000C4B4FF400521A620A4800F0BDFA0346E9
:101D5000002B01D0FFF7DEFD7B68064A5A62054A78
:101D60007B68936200BF1037BD4680BD002C0140E8
:101D7000001002409C0200201C00024080B588B088
:101D800000AF786007F10C0300221A605A609A6075
:101D9000DA601A617B681B68124A93421DD1124BAC
:101DA000DB6C114A43F00103D3640F4BDB6C03F08F
:101DB0000103BB60BB684FF48073FB6002233B618F
:101DC00000237B610023BB610123FB6107F10C034E
:101DD00019464FF0904000F0AFFC00BF2037BD46E1
:101DE00080BD00BF002C01400010024080B500AF54
:101DF000144B154A1A60134B4FF4E1325A60114BE1
:101E000000229A600F4B0022DA600E4B00221A610A
:101E10000C4B0C225A610B4B00229A61094B002299
:101E2000DA61084B00221A62064B00225A6205480A
:101E300003F084FA0346002B01D0FFF76BFD00BFCF
:101E400080BD00BFE40200200044004080B59EB089
:101E500000AF786007F1640300221A605A609A604C
:101E6000DA601A6107F1100354220021184604F0C9
:101E70008AFE7B681B68284A934248D102233B6153
:101E800000237B6307F11003184601F083FC03462F
:101E9000002B01D0FFF73EFD204B9B6D1F4A43F402
:101EA000003393651D4B9B6D03F40033FB60FB68AF
:101EB0001A4BDB6C194A43F00103D364174BDB6CFC
:101EC00003F00103BB60BB6804237B660223BB668F
:101ED0000023FB6603233B6707237B6707F164034B
:101EE00019464FF0904000F027FC4FF400437B660A
:101EF0000223BB660023FB6603233B6703237B6748
:101F000007F1640319464FF0904000F015FC00BF44
:101F10007837BD4680BD00BF00440040001002403D
:101F2000DFF834D0FFF720FE0C480D490D4A00239E
:101F300002E0D458C4500433C4188C42F9D30A4A7E
:101F40000A4C002301E013600432A242FBD304F0E8
:101F500073FEFFF7E7FBFEE7000001200000002012
:101F6000D4010020D8A70008D4010020BC04002020
:101F7000FEE780B582B000AF0023FB71032000F0C4
:101F800061F9002000F00EF80346002B02D0012377
:101F9000FB7101E0FFF7C4FCFB7918460837BD462A
:101FA00080BD000080B584B000AF78600023FB7373
:101FB000174B1B78002B23D0164B1A68144B1B7839
:101FC00019464FF47A73B3FBF1F3B2FBF3F31846FF
:101FD00000F06DF90346002B0FD17B680F2B09D859
:101FE000002279684FF0FF3000F037F90A4A7B6829
:101FF000136007E00123FB7304E00123FB7301E09E
:102000000123FB73FB7B18461037BD4680BD00BF24
:1020100008000020000000200400002080B400AF71
:10202000064B1B781A46064B1B681344044A136080
:1020300000BFBD465DF8047B704700BF080000206C
:102040006C03002080B400AF034B1B681846BD46EC
:102050005DF8047B704700BF6C03002080B584B03E
:1020600000AF7860FFF7EEFFB8607B68FB60FB684D
:10207000B3F1FF3F05D00A4B1B781A46FB681344A7
:10208000FB6000BFFFF7DEFF0246BB68D31AFA68A9
:102090009A42F7D800BF00BF1037BD4680BD00BFD1
:1020A0000800002080B485B000AF78607B6803F042
:1020B0000703FB600C4BDB68BB60BA684FF6FF039D
:1020C0001340BB60FB681A02BB68134343F0BF6355
:1020D00043F40033BB60044ABB68D36000BF1437CD
:1020E000BD465DF8047B704700ED00E080B400AFB2
:1020F000044BDB681B0A03F007031846BD465DF876
:10210000047B704700ED00E080B483B000AF03466D
:10211000FB7197F90730002B0BDBFB7903F01F02F3
:10212000074997F907305B09012000FA02F241F8EC
:10213000232000BF0C37BD465DF8047B704700BF0D
:1021400000E100E080B483B000AF03463960FB716A
:1021500097F90730002B0ADB3B68DAB20C4997F994
:1021600007301201D2B20B4483F800230AE03B6827
:10217000DAB20849FB7903F00F03043B1201D2B233
:102180000B441A7600BF0C37BD465DF8047B7047E0
:1021900000E100E000ED00E080B489B000AFF8603D
:1021A000B9607A60FB6803F00703FB61FB69C3F168
:1021B0000703042B28BF0423BB61FB690433062BF0
:1021C00002D9FB69033B00E000237B614FF0FF3243
:1021D000BB6902FA03F3DA43BB681A407B699A4091
:1021E0004FF0FF317B6901FA03F3D9437B680B4061
:1021F000134318462437BD465DF8047B7047000042
:1022000080B582B000AF78607B68013BB3F1807F1E
:1022100001D301230FE00A4A7B68013B53600F2181
:102220004FF0FF30FFF78EFF054B00229A60044B02
:1022300007221A60002318460837BD4680BD00BF3C
:1022400010E000E080B582B000AF78607868FFF7FA
:1022500029FF00BF0837BD4680BD80B586B000AFFE
:102260000346B9607A60FB7300237B61FFF73EFF92
:1022700078617A68B9687869FFF78EFF024697F946
:102280000F3011461846FFF75DFF00BF1837BD46F7
:1022900080BD80B582B000AF0346FB7197F907306F
:1022A0001846FFF731FF00BF0837BD4680BD80B537
:1022B00082B000AF78607868FFF7A2FF0346184647
:1022C0000837BD4680BD000080B485B000AF78609F
:1022D0007B68002B01D1012398E07B681B681A46BC
:1022E0004D4B9A420FD87B681B681A464B4B1344E0
:1022F0004B4AA2FB03231B099A007B685A647B6844
:10230000484A1A640EE07B681B681A46464B134421
:10231000434AA2FB03231B099A007B685A647B682B
:10232000424A1A647B68022283F825207B681B6876
:102330001B68FB60FB6823F4FF4323F07003FB6022
:102340007B689A687B68DB681A437B681B691A4361
:102350007B685B691A437B689B691A437B68DB690E
:102360001A437B681B6A1343FA681343FB607B685C
:102370001B68FA681A607B689B68B3F5804F39D098
:102380007B681B6C274A93421AD1294B1A687B68D9
:102390005B6C03F01C030F2101FA03F3DB432449B8
:1023A00013400B60224B1A687B6859687B685B6C32
:1023B00003F01C0301FA03F31D4913430B6019E0FA
:1023C0001C4B1A687B685B6C03F01C030F2101FA3D
:1023D00003F3DB43174913400B60164B1A687B6805
:1023E00059687B685B6C03F01C0301FA03F3114925
:1023F00013430B607B680022DA637B68012283F859
:1024000025207B68002283F82420002318461437F7
:10241000BD465DF8047B704707040240F8FFFDBF2E
:10242000CDCCCCCC00000240F8FBFDBF0004024044
:10243000A8000240A804024080B586B000AFF86052
:10244000B9607A603B600023FB75FB6893F8243029
:10245000012B01D102234BE0FB68012283F82420E9
:10246000FB6893F82530DBB2012B3AD1FB680222DE
:1024700083F82520FB680022DA63FB681B681A6872
:10248000FB681B6822F001021A603B687A68B96831
:10249000F86800F021F9FB681B6B002B08D0FB6883
:1024A0001B681A68FB681B6842F00E021A600FE096
:1024B000FB681B681A68FB681B6822F004021A603C
:1024C000FB681B681A68FB681B6842F00A021A6006
:1024D000FB681B681A68FB681B6842F001021A60FF
:1024E00005E0FB68002283F824200223FB75FB7DB6
:1024F00018461837BD4680BD80B584B000AF7860FF
:102500000023FB737B6893F82530DBB2022B05D0E8
:102510007B680422DA630123FB7329E07B681B6874
:102520001A687B681B6822F00E021A607B681B68C1
:102530001A687B681B6822F001021A607B685B6C7A
:1025400003F01C027B681B6C012101FA02F25A6045
:102550007B68012283F825207B68002283F82420F1
:102560007B689B6B002B03D07B689B6B78689847DC
:10257000FB7B18461037BD4680BD80B584B000AFE8
:1025800078607B681B6C1B68FB607B681B681B6842
:10259000BB607B685B6C03F01C0304229A40FB6801
:1025A0001340002B26D0BB6803F00403002B21D07E
:1025B0007B681B681B6803F02003002B07D17B6836
:1025C0001B681A687B681B6822F004021A607B682B
:1025D0005B6C03F01C027B681B6C042101FA02F2A5
:1025E0005A607B681B6B002B71D07B681B6B786813
:1025F00098476CE07B685B6C03F01C0302229A40F6
:10260000FB681340002B2ED0BB6803F00203002BA5
:1026100029D07B681B681B6803F02003002B0BD1BB
:102620007B681B681A687B681B6822F00A021A60C4
:102630007B68012283F825207B685B6C03F01C0219
:102640007B681B6C022101FA02F25A607B6800224F
:1026500083F824207B68DB6A002B38D07B68DB6A38
:102660007868984733E07B685B6C03F01C030822B2
:102670009A40FB681340002B2AD0BB6803F0080384
:10268000002B25D07B681B681A687B681B6822F0CA
:102690000E021A607B685B6C03F01C027B681B6C8B
:1026A000012101FA02F25A607B680122DA637B6839
:1026B000012283F825207B68002283F824207B6890
:1026C0005B6B002B04D07B685B6B7868984700BF1E
:1026D00000BF1037BD4680BD80B485B000AFF86044
:1026E000B9607A603B60FB685B6C03F01C02FB68BE
:1026F0001B6C012101FA02F25A60FB681B683A6800
:102700005A60FB689B68102B08D1FB681B687A68CD
:102710009A60FB681B68BA68DA6007E0FB681B68B0
:10272000BA689A60FB681B687A68DA6000BF143781
:10273000BD465DF8047B704780B487B000AF786019
:10274000396000237B6148E13B681A6801217B699D
:1027500001FA03F31340FB60FB68002B00F03A81A1
:102760003B685B6803F00303012B05D03B685B68A3
:1027700003F00303022B30D17B689B683B617B69CC
:102780005B00032202FA03F3DB433A6913403B6127
:102790003B68DA687B695B0002FA03F33A6913432A
:1027A0003B617B683A699A607B685B683B610122A8
:1027B0007B6902FA03F3DB433A6913403B613B68F0
:1027C0005B681B0903F001027B6902FA03F33A69B3
:1027D00013433B617B683A695A603B685B6803F06E
:1027E0000303032B17D07B68DB683B617B695B00CD
:1027F000032202FA03F3DB433A6913403B613B686F
:102800009A687B695B0002FA03F33A6913433B6100
:102810007B683A69DA603B685B6803F00303022B6C
:1028200023D17B69DA087B68083253F822303B6198
:102830007B6903F007039B000F2202FA03F3DB43DB
:102840003A6913403B613B681A697B6903F00703EF
:102850009B0002FA03F33A6913433B617B69DA0890
:102860007B680832396943F822107B681B683B613A
:102870007B695B00032202FA03F3DB433A691340EE
:102880003B613B685B6803F003027B695B0002FA13
:1028900003F33A6913433B617B683A691A603B680A
:1028A0005B6803F44033002B00F09480524B1B6EA6
:1028B000514A43F0010313664F4B1B6E03F00103B3
:1028C000BB60BB684D4A7B699B08023352F82330DA
:1028D0003B617B6903F003039B000F2202FA03F3C1
:1028E000DB433A6913403B617B68B3F1904F0DD0F5
:1028F0007B68434A934207D07B68424A934201D1A6
:10290000022304E0072302E0012300E000237A69A8
:1029100002F00302920093403A6913433B61374946
:102920007B699B0802333A6941F82320364B9B6848
:102930003B61FB68DB433A6913403B613B685B6882
:1029400003F48013002B03D03A69FB6813433B6107
:102950002D4A3B6993602C4BDB683B61FB68DB4392
:102960003A6913403B613B685B6803F40013002B3A
:1029700003D03A69FB6813433B61234A3B69D36048
:10298000214B5B683B61FB68DB433A6913403B6169
:102990003B685B6803F40033002B03D03A69FB68A3
:1029A00013433B61184A3B695360174B1B683B61FB
:1029B000FB68DB433A6913403B613B685B6803F4A7
:1029C0008033002B03D03A69FB6813433B610E4A06
:1029D0003B6913607B6901337B613B681A687B69E3
:1029E00022FA03F3002B7FF4AFAE00BF00BF1C3709
:1029F000BD465DF8047B70470010024000000140B6
:102A000000040048000800480004014080B483B07E
:102A100000AF78600B467B8013467B707B78002B81
:102A200003D07A887B689A6102E07A887B689A6230
:102A300000BF0C37BD465DF8047B704780B400AF23
:102A4000054B1B68044A43F48073136000BFBD4606
:102A50005DF8047B704700BF0070004080B400AF99
:102A6000044B1B6803F4C0631846BD465DF8047B45
:102A7000704700BF0070004080B485B000AF786040
:102A80007B68B3F5007F30D1234B1B6803F4C06330
:102A9000B3F5007F38D0204B1B6823F4C0631E4A77
:102AA00043F4007313601D4B1B68322202FB03F3D7
:102AB0001B4AA2FB03239B0C0133FB6002E0FB6873
:102AC000013BFB60144B5B6903F48063B3F5806FDB
:102AD00002D1FB68002BF2D10F4B5B6903F48063DA
:102AE000B3F5806F10D103230FE00B4B1B6803F489
:102AF000C063B3F5806F07D0074B1B6823F4C06336
:102B0000054A43F480631360002318461437BD461A
:102B10005DF8047B704700BF00700040000000209B
:102B200083DE1B4380B588B000AF78607B68002BE4
:102B300002D1012300F002BC964B9B6803F00C030A
:102B4000BB61944BDB6803F003037B617B681B680C
:102B500003F01003002B00F0E480BB69002B07D0CA
:102B6000BB690C2B40F08B807B69012B40F0878088
:102B7000884B1B6803F00203002B05D07B689B6920
:102B8000002B01D10123D9E37B681A6A814B1B68B2
:102B900003F00803002B04D07E4B1B6803F0F00306
:102BA00005E07C4BD3F894301B0903F0F00393420B
:102BB00023D27B681B6A184600F08CFD0346002B6D
:102BC00001D00123BAE3734B1B68724A43F0080338
:102BD0001360704B1B6823F0F0027B681B6A6D4921
:102BE00013430B606B4B5B6823F47F427B68DB69AC
:102BF0001B02684913434B6025E0664B1B68654A1E
:102C000043F008031360634B1B6823F0F0027B68FA
:102C10001B6A604913430B605E4B5B6823F47F4281
:102C20007B68DB691B025B4913434B60BB69002B6C
:102C300009D17B681B6A184600F04CFD0346002B47
:102C400001D001237AE300F081FC0246514B9B68DE
:102C50001B0903F00F035049CB5C03F01F0322FA5A
:102C600003F34E4A13604E4B1B681846FFF79AF960
:102C70000346FB73FB7B002B52D0FB7B5EE37B6840
:102C80009B69002B32D0434B1B68424A43F001033F
:102C90001360FFF7D7F9386108E0FFF7D3F9024670
:102CA0003B69D31A022B01D9032347E3394B1B6835
:102CB00003F00203002BF0D0364B1B68354A43F07B
:102CC00008031360334B1B6823F0F0027B681B6A18
:102CD000304913430B602F4B5B6823F47F427B68C2
:102CE000DB691B022B4913434B601AE0294B1B681D
:102CF000284A23F001031360FFF7A4F9386108E0C4
:102D0000FFF7A0F902463B69D31A022B01D903232E
:102D100014E3204B1B6803F00203002BF0D100E00A
:102D200000BF7B681B6803F00103002B73D0BB69F5
:102D3000082B05D0BB690C2B0ED17B69032B0BD163
:102D4000144B1B6803F40033002B63D07B685B6873
:102D5000002B5FD10123F1E27B685B68B3F5803F14
:102D600006D10C4B1B680B4A43F48033136025E0FB
:102D70007B685B68B3F5A02F14D1064B1B68054A2E
:102D800043F480231360034B1B68024A43F48033EF
:102D9000136013E00010024050A300080000002060
:102DA00004000020A04B1B689F4A23F4803313606B
:102DB0009D4B1B689C4A23F4802313607B685B68EF
:102DC000002B13D0FFF73EF9386108E0FFF73AF91E
:102DD00002463B69D31A642B01D90323AEE2924B1E
:102DE0001B6803F40033002BF0D014E0FFF72AF93E
:102DF000386108E0FFF726F902463B69D31A642BD5
:102E000001D903239AE2884B1B6803F40033002B9B
:102E1000F0D100E000BF7B681B6803F00203002BC9
:102E200060D0BB69042B05D0BB690C2B19D17B6921
:102E3000022B16D17C4B1B6803F48063002B05D05A
:102E40007B68DB68002B01D1012377E2764B5B685E
:102E500023F0F8527B681B691B06734913434B60D0
:102E600040E07B68DB68002B23D06F4B1B686E4A09
:102E700043F480731360FFF7E5F8386108E0FFF76B
:102E8000E1F802463B69D31A022B01D9032355E22C
:102E9000654B1B6803F48063002BF0D0624B5B68CA
:102EA00023F0F8527B681B691B065F4913434B6094
:102EB00018E05D4B1B685C4A23F480731360FFF7D6
:102EC000C1F8386108E0FFF7BDF802463B69D31A44
:102ED000022B01D9032331E2534B1B6803F48063B7
:102EE000002BF0D17B681B6803F00803002B3CD05B
:102EF0007B685B69002B1CD04B4BD3F894304A4A5B
:102F000043F00103C2F89430FFF79CF8386108E001
:102F1000FFF798F802463B69D31A022B01D9032325
:102F20000CE2414BD3F8943003F00203002BEFD0B6
:102F30001BE03D4BD3F894303B4A23F00103C2F829
:102F40009430FFF77FF8386108E0FFF77BF802461E
:102F50003B69D31A022B01D90323EFE1324BD3F89B
:102F6000943003F00203002BEFD17B681B6803F061
:102F70000403002B00F0A6800023FB772A4B9B6DF7
:102F800003F08053002B0DD1274B9B6D264A43F055
:102F900080539365244B9B6D03F08053BB60BB68EB
:102FA0000123FB77214B1B6803F48073002B18D19E
:102FB0001E4B1B681D4A43F480731360FFF742F8F1
:102FC000386108E0FFF73EF802463B69D31A022B4E
:102FD00001D90323B2E1154B1B6803F48073002B66
:102FE000F0D07B689B68012B08D10F4BD3F8903051
:102FF0000D4A43F00103C2F8903029E07B689B68DA
:10300000052B15D1084BD3F89030074A43F0040341
:10301000C2F89030044BD3F89030034A43F00103D8
:10302000C2F8903014E000BF001002400070004071
:103030009A4BD3F89030994A23F00103C2F89030AC
:10304000964BD3F89030954A23F00403C2F89030A1
:103050007B689B68002B16D0FEF7F4FF38610AE00E
:10306000FEF7F0FF02463B69D31A41F288329342E1
:1030700001D9032362E1894BD3F8903003F00203B6
:10308000002BEDD015E0FEF7DDFF38610AE0FEF71A
:10309000D9FF02463B69D31A41F28832934201D9E3
:1030A00003234BE17D4BD3F8903003F00203002B58
:1030B000EDD1FB7F012B05D1784B9B6D774A23F037
:1030C000805393657B681B6803F02003002B3CD082
:1030D0007B685B6A002B1CD0704BD3F898306F4A2A
:1030E00043F00103C2F89830FEF7ACFF386108E006
:1030F000FEF7A8FF02463B69D31A022B01D903232E
:103100001CE1664BD3F8983003F00203002BEFD09C
:103110001BE0624BD3F89830604A23F00103C2F8F9
:103120009830FEF78FFF386108E0FEF78BFF02460C
:103130003B69D31A022B01D90323FFE0574BD3F885
:10314000983003F00203002BEFD17B689B6A002BC1
:1031500000F0F3807B689B6A022B40F0C9804F4BE4
:10316000DB687B617B6903F003027B68DB6A9A4260
:103170002CD17B6903F070027B681B6B013B1B0148
:103180009A4223D17B6903F4FE427B685B6B1B028E
:103190009A421BD17B6903F078427B689B6BDB060C
:1031A0009A4213D17B6903F4C0027B68DB6B5B0836
:1031B000013B5B059A4209D17B6903F0C0627B68E1
:1031C0001B6C5B08013B5B069A426BD0BB690C2B06
:1031D00062D0324B1B6803F08063002B01D00123C7
:1031E000ACE02E4B1B682D4A23F080731360FEF772
:1031F00029FF386108E0FEF725FF02463B69D31A34
:10320000022B01D9032399E0244B1B6803F00073C0
:10321000002BF0D1214BDA68214B13407A68D16A38
:103220007A68126B013A120111437A68526B1202EA
:1032300011437A68D26B5208013A520511437A68F9
:10324000126C5208013A520611437A68926BD20608
:103250000A4312491343CB60104B1B680F4A43F0DB
:10326000807313600D4BDB680C4A43F08073D360AE
:10327000FEF7E8FE386108E0FEF7E4FE02463B692F
:10328000D31A022B01D9032358E0044B1B6803F027
:103290000073002BF0D050E001234FE000100240FB
:1032A0008C809D01274B1B6803F00073002B44D1D9
:1032B000244B1B68234A43F080731360214BDB6867
:1032C000204A43F08073D360FEF7BCFE386108E00B
:1032D000FEF7B8FE02463B69D31A022B01D903233D
:1032E0002CE0184B1B6803F00073002BF0D024E097
:1032F000BB690C2B1FD0134B1B68124A23F0807341
:103300001360FEF79FFE386108E0FEF79BFE024661
:103310003B69D31A022B01D903230FE0094B1B6829
:1033200003F00073002BF0D1064BDA680549064B19
:103330001340CB6001E0012300E000231846203752
:10334000BD4680BD00100240FCFFEEFE80B584B09B
:1033500000AF786039607B68002B01D10123E7E082
:10336000754B1B6803F007033A689A4210D9724BF9
:103370001B6823F0070270493B6813430B606E4BD8
:103380001B6803F007033A689A4201D00123CFE09B
:103390007B681B6803F00203002B10D07B689A68DF
:1033A000664B9B6803F0F0039A4208D9634B9B6815
:1033B00023F0F0027B689B68604913438B607B6855
:1033C0001B6803F00103002B4CD07B685B68032B68
:1033D00007D15A4B1B6803F00073002B21D1012346
:1033E000A6E07B685B68022B07D1544B1B6803F493
:1033F0000033002B15D101239AE07B685B68002B1A
:1034000007D14E4B1B6803F00203002B09D10123A7
:103410008EE04A4B1B6803F48063002B01D101232B
:1034200086E0464B9B6823F003027B685B68434958
:1034300013438B60FEF706FEF8600AE0FEF702FE1B
:103440000246FB68D31A41F28832934201D9032322
:103450006EE03A4B9B6803F00C027B685B689B0054
:103460009A42EBD17B681B6803F00203002B10D05B
:103470007B689A68314B9B6803F0F0039A4208D24C
:103480002E4B9B6823F0F0027B689B682B4913430B
:103490008B60294B1B6803F007033A689A4210D2ED
:1034A000254B1B6823F0070223493B6813430B603D
:1034B000214B1B6803F007033A689A4201D00123AD
:1034C00036E07B681B6803F00403002B08D01B4B1D
:1034D0009B6823F4E0627B68DB68184913438B60C8
:1034E0007B681B6803F00803002B09D0134B9B6813
:1034F00023F460527B681B69DB00104913438B6027
:1035000000F024F802460D4B9B681B0903F00F03E3
:103510000B49CB5C03F01F0322FA03F3094A136043
:10352000094B1B681846FEF73DFD0346FB72FB7A0C
:1035300018461037BD4680BD0020024000100240F2
:1035400050A30008000000200400002080B489B0CF
:1035500000AF0023FB610023BB613E4B9B6803F07F
:103560000C033B613B4BDB6803F00303FB603B69EF
:10357000002B05D03B690C2B21D1FB68012B1ED100
:10358000344B1B6803F00803002B07D1314BD3F8F1
:1035900094301B0A03F00F03FB6105E02D4B1B6801
:1035A0001B0903F00F03FB612B4AFB6952F8233020
:1035B000FB613B69002B0DD1FB69BB610AE03B69F4
:1035C000042B02D1254BBB6104E03B69082B01D1E0
:1035D000234BBB613B690C2B34D11E4BDB6803F0E2
:1035E0000303BB60BB68022B03D0BB68032B03D073
:1035F00005E01A4B7B6105E0194B7B6102E0FB693A
:103600007B6100BF134BDB681B0903F00703013329
:103610007B60104BDB681B0A03F07F037A6903FBB6
:1036200002F27B68B2FBF3F37B610A4BDB685B0E53
:1036300003F0030301335B003B607A693B68B2FB34
:10364000F3F3BB61BB6918462437BD465DF8047BC4
:10365000704700BF0010024068A300080024F40077
:1036600000127A0080B400AF034B1B681846BD46B9
:103670005DF8047B704700BF0000002080B500AFFC
:10368000FFF7F0FF0246064B9B681B0A03F0070397
:103690000449CB5C03F01F0322FA03F3184680BDF4
:1036A0000010024060A3000880B500AFFFF7DAFF0A
:1036B0000246064B9B68DB0A03F007030449CB5C18
:1036C00003F01F0322FA03F3184680BD00100240E6
:1036D00060A3000880B586B000AF786000233B612E
:1036E0002A4B9B6D03F08053002B03D0FFF7B6F9F4
:1036F000786114E0254B9B6D244A43F08053936519
:10370000224B9B6D03F08053FB60FB68FFF7A6F92B
:1037100078611E4B9B6D1D4A23F0805393657B6936
:10372000B3F5007F0BD17B68802B19D97B68A02B68
:1037300002D902233B6113E001233B6110E07B6867
:10374000802B02D903233B610AE07B68802B02D1E6
:1037500002233B6104E07B68702B01D101233B61B4
:103760000B4B1B6823F0070209493B6913430B60AD
:10377000074B1B6803F007033A699A4201D0012303
:1037800000E0002318461837BD4680BD00100240F7
:103790000020024080B586B000AF78600023FB7443
:1037A0000023BB747B681B6803F40063002B31D0DB
:1037B0007B68DB6BB3F5400F1AD0B3F5400F14D81C
:1037C000002B09D0B3F5000F0FD15D4BDB685C4ACD
:1037D00043F48033D3600CE07B6804330021184647
:1037E00000F0DEF90346FB7403E00123FB7400E004
:1037F00000BFFB7C002B0BD1514BD3F8883023F456
:1038000040027B68DB6B4E491343C1F8883001E00E
:10381000FB7CBB747B681B6803F40033002B00F057
:103820009E8000237B74464B9B6D03F08053002BDE
:1038300001D1012300E00023002B0DD0404B9B6DF4
:103840003F4A43F0805393653D4B9B6D03F080539B
:10385000BB60BB6801237B743A4B1B68394A43F455
:1038600080731360FEF7EEFBF86009E0FEF7EAFBF9
:103870000246FB68D31A022B02D90323FB7405E02E
:10388000304B1B6803F48073002BEFD0FB7C002BC4
:103890005AD12B4BD3F8903003F440737B617B6992
:1038A000002B1ED07B681B6D7A699A4219D0244B7D
:1038B000D3F8903023F440737B61214BD3F89030E0
:1038C0001F4A43F48033C2F890301D4BD3F8903038
:1038D0001B4A23F48033C2F89030194A7B69C2F83E
:1038E00090307B6903F00103002B16D0FEF7AAFB92
:1038F000F8600BE0FEF7A6FB0246FB68D31A41F224
:103900008832934202D90323FB7406E00C4BD3F8B0
:10391000903003F00203002BECD0FB7C002B0BD18A
:10392000074BD3F8903023F440727B681B6D044939
:103930001343C1F8903009E0FB7CBB7406E000BF84
:103940000010024000700040FB7CBB747B7C012BAC
:1039500005D18A4B9B6D894A23F0805393657B6820
:103960001B6803F00103002B0AD0844BD3F8883086
:1039700023F003027B681B6A80491343C1F8883037
:103980007B681B6803F00203002B0AD07B4BD3F843
:10399000883023F00C027B685B6A78491343C1F8D6
:1039A00088307B681B6803F02003002B0AD0734B20
:1039B000D3F8883023F440627B689B6A6F491343D5
:1039C000C1F888307B681B6803F40073002B0AD0B1
:1039D0006A4BD3F8883023F440227B685B6B6749DD
:1039E0001343C1F888307B681B6803F48063002BA5
:1039F0000AD0624BD3F8883023F440127B689B6B6B
:103A00005E491343C1F888307B681B6803F04003AC
:103A1000002B0AD0594BD3F8883023F440527B68EE
:103A2000DB6A56491343C1F888307B681B6803F48E
:103A30008073002B0AD0514BD3F8883023F44032E6
:103A40007B681B6B4D491343C1F888307B681B684A
:103A500003F40053002B28D0484BD3F8883023F0D0
:103A600040627B681B6C45491343C1F888307B6812
:103A70001B6CB3F1006F06D1404BDB683F4A43F447
:103A80008013D36011E07B681B6CB3F1806F0CD1A5
:103A90007B6804330121184600F082F80346FB746A
:103AA000FB7C002B01D0FB7CBB747B681B6803F4A0
:103AB0008023002B28D0314BD3F8883023F040628C
:103AC0007B685B6C2D491343C1F888307B685B6C65
:103AD000B3F1006F06D1294BDB68284A43F4801309
:103AE000D36011E07B685B6CB3F1806F0CD17B68B5
:103AF00004330121184600F053F80346FB74FB7CA5
:103B0000002B01D0FB7CBB747B681B6803F48043F3
:103B1000002B1CD0194BD3F8883023F040527B681F
:103B20009B6C16491343C1F888307B689B6CB3F1DA
:103B3000805F0CD17B6804330221184600F030F816
:103B40000346FB74FB7C002B01D0FB7CBB747B68C1
:103B50001B6803F40043002B0AD0084BD3F88830CD
:103B600023F080427B68DB6C04491343C1F8883042
:103B7000BB7C18461837BD4680BD00BF0010024010
:103B800080B400AF054B1B68044A43F00403136084
:103B900000BFBD465DF8047B704700BF00100240C7
:103BA00080B584B000AF786039600023FB73744B3C
:103BB000DB6803F00303002B18D0714BDB6803F0C4
:103BC00003027B681B689A420DD17B681B68002B3F
:103BD00009D06B4BDB681B0903F007035A1C7B6899
:103BE0005B689A4247D00123FB7344E07B681B6803
:103BF000032B18D0032B25D8012B02D0022B09D080
:103C000020E05F4B1B6803F00203002B1DD1012352
:103C1000FB731AE05A4B1B6803F48063002B16D128
:103C20000123FB7313E0564B1B6803F40033002B96
:103C30000FD1534B1B6803F48023002B09D10123C0
:103C4000FB7306E00123FB7304E000BF02E000BF4A
:103C500000E000BFFB7B002B0DD1494BDB6823F05C
:103C600073027B6819687B685B68013B1B010B432F
:103C700043491343CB60FB7B002B7CD1404B1B683B
:103C80003F4A23F080631360FEF7DCF9B86009E077
:103C9000FEF7D8F90246BB68D31A022B02D90323D8
:103CA000FB7305E0364B1B6803F00063002BEFD17C
:103CB000FB7B002B5FD13B68002B10D1304B1B6985
:103CC00023F0784323F4FE437A68926811027A68FD
:103CD000D268D2060A432A4913430B6127E03B68A6
:103CE000012B12D1264B1B6923F4C00323F4FE439E
:103CF0007A68926811027A6812695208013A52058C
:103D00000A431F4913430B6111E01D4B1B6923F04C
:103D1000C06323F4FE437A68926811027A6852699C
:103D20005208013A52060A43154913430B61144BDA
:103D30001B68134A43F080631360FEF783F9B86091
:103D400009E0FEF77FF90246BB68D31A022B02D9BD
:103D50000323FB7305E00A4B1B6803F00063002B91
:103D6000EFD0FB7B002B06D1054B1A697B689B6962
:103D7000034913430B61FB7B18461037BD4680BDDA
:103D80000010024080B582B000AF78607B68002BE5
:103D900001D1012349E07B6893F83D30DBB2002B71
:103DA00006D17B68002283F83C207868FDF79AFFF3
:103DB0007B68022283F83D207B681A687B680433A5
:103DC0001946104600F02EFE7B68012283F8482039
:103DD0007B68012283F83E207B68012283F83F2024
:103DE0007B68012283F840207B68012283F8412010
:103DF0007B68012283F842207B68012283F84320FC
:103E00007B68012283F844207B68012283F84520E7
:103E10007B68012283F846207B68012283F84720D3
:103E20007B68012283F83D20002318460837BD46F1
:103E300080BD80B582B000AF78607B68002B01D177
:103E4000012349E07B6893F83D30DBB2002B06D1BB
:103E50007B68002283F83C20786800F041F87B689A
:103E6000022283F83D207B681A687B680433194678
:103E7000104600F0D7FD7B68012283F848207B685C
:103E8000012283F83E207B68012283F83F207B6873
:103E9000012283F840207B68012283F841207B685F
:103EA000012283F842207B68012283F843207B684B
:103EB000012283F844207B68012283F845207B6837
:103EC000012283F846207B68012283F847207B6823
:103ED000012283F83D20002318460837BD4680BDE7
:103EE00080B483B000AF786000BF0C37BD465DF88A
:103EF000047B704780B586B000AFF860B9607A6027
:103F00007B800023FB75BB68002B09D1FB6893F80D
:103F10003E30DBB2022B0CBF01230023DBB23CE0BE
:103F2000BB68042B09D1FB6893F83F30DBB2022B4E
:103F30000CBF01230023DBB22FE0BB68082B09D1A3
:103F4000FB6893F84030DBB2022B0CBF0123002347
:103F5000DBB222E0BB680C2B09D1FB6893F841303F
:103F6000DBB2022B0CBF01230023DBB215E0BB68E0
:103F7000102B09D1FB6893F84230DBB2022B0CBF47
:103F800001230023DBB208E0FB6893F84330DBB287
:103F9000022B0CBF01230023DBB2002B01D0022334
:103FA0008DE1BB68002B09D1FB6893F83E30DBB292
:103FB000012B0CBF01230023DBB23CE0BB68042BC8
:103FC00009D1FB6893F83F30DBB2012B0CBF012312
:103FD0000023DBB22FE0BB68082B09D1FB6893F804
:103FE0004030DBB2012B0CBF01230023DBB222E007
:103FF000BB680C2B09D1FB6893F84130DBB2012B75
:104000000CBF01230023DBB215E0BB68102B09D1E4
:10401000FB6893F84230DBB2012B0CBF0123002375
:10402000DBB208E0FB6893F84330DBB2012B0CBF36
:1040300001230023DBB2002B34D07B68002B02D09D
:104040007B88002B01D1012339E1BB68002B04D10F
:10405000FB68022283F83E2026E0BB68042B04D1D3
:10406000FB68022283F83F201EE0BB68082B04D1C6
:10407000FB68022283F8402016E0BB680C2B04D1B9
:10408000FB68022283F841200EE0BB68102B04D1AC
:10409000FB68022283F8422006E0FB68022283F8D4
:1040A000432001E001230AE1BB680C2B00F2AE8043
:1040B00001A252F823F000BFED4000080D420008B5
:1040C0000D4200080D420008354100080D4200086D
:1040D0000D4200080D4200087D4100080D42000815
:1040E0000D4200080D420008C5410008FB685B6AEC
:1040F000754ADA62FB685B6A744A1A63FB685B6A3A
:10410000734A5A63FB68586A7968FB681B683433E2
:104110001A467B88FEF790F90346002B01D0012355
:10412000CDE0FB681B68DA68FB681B6842F400722C
:10413000DA606EE0FB689B6A634ADA62FB689B6A3E
:10414000624A1A63FB689B6A614A5A63FB68986A11
:104150007968FB681B6838331A467B88FEF76CF970
:104160000346002B01D00123A9E0FB681B68DA6835
:10417000FB681B6842F48062DA604AE0FB68DB6A35
:10418000514ADA62FB68DB6A504A1A63FB68DB6AF1
:104190004F4A5A63FB68D86A7968FB681B683C33EE
:1041A0001A467B88FEF748F90346002B01D001230D
:1041B00085E0FB681B68DA68FB681B6842F40062F4
:1041C000DA6026E0FB681B6B3F4ADA62FB681B6B18
:1041D0003E4A1A63FB681B6B3D4A5A63FB68186BC7
:1041E0007968FB681B6840331A467B88FEF724F920
:1041F0000346002B01D0012361E0FB681B68DA68ED
:10420000FB681B6842F48052DA6002E00123FB7510
:1042100000BFFB7D002B51D1FB681B680122B968F0
:10422000184600F087FFFB681B682A4A934209D0B2
:10423000FB681B68284A934204D0FB681B68274A26
:10424000934201D1012300E00023002B07D0FB683B
:104250001B685A6CFB681B6842F400425A64FB6896
:104260001B681C4A934209D0FB681B68B3F1804F5E
:1042700004D0FB681B68184A934215D1FB681B6881
:104280009A68174B13403B613B69062B15D03B697D
:10429000B3F5803F11D0FB681B681A68FB681B6888
:1042A00042F001021A6008E0FB681B681A68FB68AC
:1042B0001B6842F001021A6000E000BFFB7D184657
:1042C0001837BD4680BD00BF15490008BD4900082C
:1042D00083480008002C0140004001400044014098
:1042E0000700010080B584B000AF7860396000231A
:1042F000FB733B680C2B55D801A252F823F000BF8A
:1043000035430008A5430008A5430008A54300085D
:1043100051430008A5430008A5430008A543000831
:104320006D430008A5430008A5430008A543000805
:10433000894300087B681B68DA687B681B6822F485
:104340000072DA607B685B6A1846FEF7D5F82CE0ED
:104350007B681B68DA687B681B6822F48062DA601D
:104360007B689B6A1846FEF7C7F81EE07B681B68EF
:10437000DA687B681B6822F40062DA607B68DB6ABB
:104380001846FEF7B9F810E07B681B68DA687B68AE
:104390001B6822F48052DA607B681B6B1846FEF7BC
:1043A000ABF802E00123FB7300BFFB7B002B76D14F
:1043B0007B681B6800223968184600F0BBFE7B68EA
:1043C0001B68394A934209D07B681B68374A93427D
:1043D00004D07B681B68364A934201D1012300E078
:1043E0000023002B17D07B681B681A6A41F2111357
:1043F0001340002B0FD17B681B681A6A40F24443BC
:104400001340002B07D17B681B685A6C7B681B68C4
:1044100022F400425A647B681B681A6A41F2111345
:104420001340002B0FD17B681B681A6A40F244438B
:104430001340002B07D17B681B681A687B681B68D8
:1044400022F001021A603B68002B04D17B68012234
:1044500083F83E2023E03B68042B04D17B680122D3
:1044600083F83F201BE03B68082B04D17B680122C6
:1044700083F8402013E03B680C2B04D17B680122B9
:1044800083F841200BE03B68102B04D17B680122AC
:1044900083F8422003E07B68012283F84320FB7B02
:1044A00018461037BD4680BD002C01400040014039
:1044B0000044014080B586B000AFF860B9607A6012
:1044C0000023FB75FB6893F83C30012B01D10223DC
:1044D000FFE0FB68012283F83C207B68142B00F28C
:1044E000F08001A252F823F03D450008C3460008C1
:1044F000C3460008C34600087D450008C3460008BF
:10450000C3460008C3460008BF450008C34600086C
:10451000C3460008C3460008FF450008C34600081C
:10452000C3460008C346000841460008C3460008C9
:10453000C3460008C346000881460008FB681B68A4
:10454000B968184600F0DEFAFB681B689A69FB68D8
:104550001B6842F008029A61FB681B689A69FB6855
:104560001B6822F004029A61FB681B689969BB68AA
:104570001A69FB681B680A439A61A5E0FB681B681F
:10458000B968184600F03AFBFB681B689A69FB683B
:104590001B6842F400629A61FB681B689A69FB68B9
:1045A0001B6822F480629A61FB681B689969BB688A
:1045B0001B691A02FB681B680A439A6184E0FB6866
:1045C0001B68B968184600F093FBFB681B68DA6942
:1045D000FB681B6842F00802DA61FB681B68DA6955
:1045E000FB681B6822F00402DA61FB681B68D9696A
:1045F000BB681A69FB681B680A43DA6164E0FB6800
:104600001B68B968184600F0EBFBFB681B68DA69A9
:10461000FB681B6842F40062DA61FB681B68DA69B8
:10462000FB681B6822F48062DA61FB681B68D96949
:10463000BB681B691A02FB681B680A43DA6143E026
:10464000FB681B68B968184600F028FCFB681B680B
:104650005A6DFB681B6842F008025A65FB681B68CC
:104660005A6DFB681B6822F004025A65FB681B68E0
:10467000596DBB681A69FB681B680A435A6523E0D9
:10468000FB681B68B968184600F060FCFB681B6893
:104690005A6DFB681B6842F400625A65FB681B6830
:1046A0005A6DFB681B6822F480625A65FB681B68C0
:1046B000596DBB681B691A02FB681B680A435A657F
:1046C00002E00123FB7500BFFB68002283F83C2059
:1046D000FB7D18461837BD4680BD00BF80B584B04D
:1046E00000AF786039600023FB737B6893F83C303F
:1046F000012B01D10223B6E07B68012283F83C2024
:104700007B68022283F83D207B681B689B68BB6046
:10471000BB6823F4803323F07703BB60BB6823F4CA
:104720007F43BB607B681B68BA689A603B681B6804
:10473000B3F5005F3ED0B3F5005F00F28780B3F5BC
:10474000805F00F08680B3F5805F7FD8702B1AD031
:10475000702B7BD8602B50D0602B77D8502B3CD05F
:10476000502B73D8402B58D0402B6FD8302B64D0AF
:10477000302B6BD8202B60D0202B67D8002B5CD03F
:10478000102B5AD062E07B6818683B6899683B68D8
:104790005A683B68DB6800F0ADFC7B681B689B686F
:1047A000BB60BB6843F07703BB607B681B68BA687B
:1047B0009A604FE07B6818683B6899683B685A6864
:1047C0003B68DB6800F096FC7B681B689A687B6836
:1047D0001B6842F480429A603CE07B6818683B6842
:1047E00059683B68DB681A4600F00AFC7B681B6866
:1047F0005021184600F063FC2CE07B6818683B6889
:1048000059683B68DB681A4600F029FC7B681B6826
:104810006021184600F053FC1CE07B6818683B6878
:1048200059683B68DB681A4600F0EAFB7B681B6846
:104830004021184600F043FC0CE07B681A683B6896
:104840001B681946104600F03AFC03E00123FB7395
:1048500000E000BF7B68012283F83D207B680022D6
:1048600083F83C20FB7B18461037BD4680BD80B4E2
:1048700083B000AF786000BF0C37BD465DF8047BA5
:10488000704780B584B000AF78607B689B6AFB603E
:10489000FB685B6A7A689A4207D1FB6801221A7743
:1048A000FB68012283F83E202AE0FB689B6A7A6855
:1048B0009A4207D1FB6802221A77FB68012283F82B
:1048C0003F201DE0FB68DB6A7A689A4207D1FB68EB
:1048D00004221A77FB68012283F8402010E0FB686D
:1048E0001B6B7A689A4207D1FB6808221A77FB682B
:1048F000012283F8412003E0FB68012283F83D2078
:10490000F868FFF7B4FFFB6800221A7700BF103782
:10491000BD4680BD80B584B000AF78607B689B6A7F
:10492000FB60FB685B6A7A689A420BD1FB680122E4
:104930001A777B68DB69002B36D1FB68012283F88C
:104940003E2031E0FB689B6A7A689A420BD1FB6893
:1049500002221A777B68DB69002B25D1FB680122D4
:1049600083F83F2020E0FB68DB6A7A689A420BD12B
:10497000FB6804221A777B68DB69002B14D1FB6883
:10498000012283F840200FE0FB681B6B7A689A4293
:104990000AD1FB6808221A777B68DB69002B03D1F8
:1049A000FB68012283F84120F868FCF7ABFCFB6848
:1049B00000221A7700BF1037BD4680BD80B584B095
:1049C00000AF78607B689B6AFB60FB685B6A7A6813
:1049D0009A4203D1FB6801221A7719E0FB689B6AAF
:1049E0007A689A4203D1FB6802221A7710E0FB68CA
:1049F000DB6A7A689A4203D1FB6804221A7707E0DF
:104A0000FB681B6B7A689A4202D1FB6808221A770E
:104A1000F868FCF7F9FBFB6800221A7700BF103733
:104A2000BD4680BD80B485B000AF786039607B68DA
:104A30001B68FB607B68304A934203D07B68B3F10C
:104A4000804F08D1FB6823F07003FB603B685B6814
:104A5000FA681343FB607B68274A93420BD07B685C
:104A6000B3F1804F07D07B68244A934203D07B6820
:104A7000234A934208D1FB6823F44073FB603B68F0
:104A8000DB68FA681343FB60FB6823F080023B6835
:104A90005B691343FB607B68FA681A603B689A683D
:104AA0007B68DA623B681A687B689A627B68124AA4
:104AB000934207D07B68114A934203D07B68104A27
:104AC000934203D13B681A697B681A637B680122B1
:104AD0005A617B681B6903F00103012B05D17B68D8
:104AE0001B6923F001027B681A6100BF1437BD46C1
:104AF0005DF8047B704700BF002C0140004001407E
:104B00000044014080B487B000AF786039607B68B2
:104B10001B6A7B617B681B6A23F001027B681A6257
:104B20007B685B683B617B689B69FB60FB6823F487
:104B3000803323F07003FB60FB6823F00303FB600A
:104B40003B681B68FA681343FB607B6923F0020330
:104B50007B613B689B687A6913437B617B68244A6D
:104B6000934207D07B68234A934203D07B68224A52
:104B700093420CD17B6923F008037B613B68DB68BF
:104B80007A6913437B617B6923F004037B617B6853
:104B9000174A934207D07B68164A934203D07B683A
:104BA000154A934211D13B6923F480733B613B6901
:104BB00023F400733B613B685B693A6913433B61D3
:104BC0003B689B693A6913433B617B683A695A6069
:104BD0007B68FA689A613B685A687B685A637B68AD
:104BE0007A691A6200BF1C37BD465DF8047B7047C6
:104BF000002C0140004001400044014080B487B0D7
:104C000000AF786039607B681B6A7B617B681B6AD8
:104C100023F010027B681A627B685B683B617B68EB
:104C20009B69FB60FB6823F0807323F4E043FB6027
:104C3000FB6823F44073FB603B681B681B02FA6847
:104C40001343FB607B6923F020037B613B689B6817
:104C50001B017A6913437B617B68224A93420DD121
:104C60007B6923F080037B613B68DB681B017A6909
:104C700013437B617B6923F040037B617B68194AA6
:104C8000934207D07B68184A934203D07B68174A47
:104C9000934213D13B6923F480633B613B6923F466
:104CA00000633B613B685B699B003A6913433B616E
:104CB0003B689B699B003A6913433B617B683A6997
:104CC0005A607B68FA689A613B685A687B689A63A5
:104CD0007B687A691A6200BF1C37BD465DF8047BA9
:104CE000704700BF002C01400040014000440140DB
:104CF00080B487B000AF786039607B681B6A7B61E5
:104D00007B681B6A23F480727B681A627B685B682D
:104D10003B617B68DB69FB60FB6823F4803323F035
:104D20007003FB60FB6823F00303FB603B681B68B8
:104D3000FA681343FB607B6923F400737B613B6873
:104D40009B681B027A6913437B617B68214A93420B
:104D50000DD17B6923F400637B613B68DB681B0238
:104D60007A6913437B617B6923F480637B617B6891
:104D7000184A934207D07B68174A934203D07B6856
:104D8000164A934213D13B6923F480533B613B693C
:104D900023F400533B613B685B691B013A69134391
:104DA0003B613B689B691B013A6913433B617B682C
:104DB0003A695A607B68FA68DA613B685A687B68CE
:104DC000DA637B687A691A6200BF1C37BD465DF8FA
:104DD000047B7047002C014000400140004401402A
:104DE00080B487B000AF786039607B681B6A3B6134
:104DF0007B681B6A23F480527B681A627B685B685D
:104E00007B617B68DB69FB60FB6823F0807323F4C4
:104E1000E043FB60FB6823F44073FB603B681B6866
:104E20001B02FA681343FB603B6923F400533B61A8
:104E30003B689B681B033A6913433B617B68144AD8
:104E4000934207D07B68134A934203D07B68124A8F
:104E5000934209D17B6923F480437B613B685B69A2
:104E60009B017A6913437B617B687A695A607B682E
:104E7000FA68DA613B685A687B681A647B683A6949
:104E80001A6200BF1C37BD465DF8047B704700BF47
:104E9000002C0140004001400044014080B487B034
:104EA00000AF786039607B681B6A3B617B681B6A76
:104EB00023F480327B681A627B685B687B617B6865
:104EC0005B6DFB60FB6823F4803323F07003FB60B1
:104ED0003B681B68FA681343FB603B6923F40033AB
:104EE0003B613B689B681B043A6913433B617B68E9
:104EF000134A934207D07B68124A934203D07B68DF
:104F0000114A934209D17B6923F480337B613B686A
:104F10005B691B027A6913437B617B687A695A601B
:104F20007B68FA685A653B685A687B689A657B6853
:104F30003A691A6200BF1C37BD465DF8047B7047B2
:104F4000002C0140004001400044014080B487B083
:104F500000AF786039607B681B6A3B617B681B6AC5
:104F600023F480127B681A627B685B687B617B68D4
:104F70005B6DFB60FB6823F0807323F4E043FB6010
:104F80003B681B681B02FA681343FB603B6923F410
:104F900000133B613B689B681B053A6913433B6107
:104FA0007B68144A934207D07B68134A934203D02C
:104FB0007B68124A934209D17B6923F480237B6189
:104FC0003B685B699B027A6913437B617B687A6902
:104FD0005A607B68FA685A653B685A687B68DA658C
:104FE0007B683A691A6200BF1C37BD465DF8047BD6
:104FF000704700BF002C01400040014000440140C8
:1050000080B487B000AFF860B9607A60FB681B6A53
:105010007B61FB681B6A23F00102FB681A62FB6874
:105020009B693B613B6923F0F0033B617B681B019B
:105030003A6913433B617B6923F00A037B617A6918
:10504000BB6813437B61FB683A699A61FB687A69C4
:105050001A6200BF1C37BD465DF8047B704780B400
:1050600087B000AFF860B9607A60FB681B6A7B614B
:10507000FB681B6A23F01002FB681A62FB689B69DD
:105080003B613B6923F470433B617B681B033A69D6
:1050900013433B617B6923F0A0037B61BB681B0169
:1050A0007A6913437B61FB683A699A61FB687A69A4
:1050B0001A6200BF1C37BD465DF8047B704780B4A0
:1050C00085B000AF786039607B689B68FB60FB68E7
:1050D00023F07003FB603A68FB68134343F0070357
:1050E000FB607B68FA689A6000BF1437BD465DF8C4
:1050F000047B704780B487B000AFF860B9607A6015
:105100003B60FB689B687B617B6923F47F437B6129
:105110003B681A027B681A43BB6813437A691343DE
:105120007B61FB687A699A6000BF1C37BD465DF8F9
:10513000047B704780B487B000AFF860B9607A60D4
:10514000BB6803F01F03012202FA03F37B61FB68D3
:105150001A6A7B69DB431A40FB681A62FB681A6AA9
:10516000BB6803F01F03796801FA03F31A43FB6875
:105170001A6200BF1C37BD465DF8047B7047000013
:1051800080B485B000AF786039607B6893F83C30BC
:10519000012B01D102234FE07B68012283F83C20E0
:1051A0007B68022283F83D207B681B685B68FB609C
:1051B0007B681B689B68BB607B681B68214A9342C5
:1051C00008D1FB6823F47003FB603B685B68FA68F6
:1051D0001343FB60FB6823F07003FB603B681B68B4
:1051E000FA681343FB607B681B68FA685A607B6847
:1051F0001B68144A934209D07B681B68B3F1804F47
:1052000004D07B681B68104A93420CD1BB6823F022
:105210008003BB603B689B68BA681343BB607B68D4
:105220001B68BA689A607B68012283F83D207B681E
:10523000002283F83C20002318461437BD465DF851
:10524000047B7047002C01400040014080B485B0D1
:1052500000AF786039600023FB607B6893F83C30D6
:10526000012B01D1022360E07B68012283F83C20FE
:10527000FB6823F0FF023B68DB681343FB60FB68BD
:1052800023F440723B689B681343FB60FB6823F484
:1052900080623B685B681343FB60FB6823F4006239
:1052A0003B681B681343FB60FB6823F480523B6838
:1052B0001B691343FB60FB6823F400523B685B6986
:1052C0001343FB60FB6823F480423B689B6A1343F3
:1052D000FB60FB6823F470223B689B691B0413434B
:1052E000FB607B681B68144A934215D1FB6823F46A
:1052F00070023B685B6A1B051343FB60FB6823F08D
:1053000080723B68DB691343FB60FB6823F000722B
:105310003B681B6A1343FB607B681B68FA685A642E
:105320007B68002283F83C20002318461437BD46D2
:105330005DF8047B704700BF002C014080B582B04F
:1053400000AF78607B68002B01D1012340E07B68CF
:10535000DB6F002B06D17B68002283F87820786809
:10536000FCF774FD7B682422DA677B681B681A6887
:105370007B681B6822F001021A607B685B6A002B65
:1053800002D0786800F054FA786800F025F80346F7
:10539000012B01D101231BE07B681B685A687B68E5
:1053A0001B6822F490425A607B681B689A687B688D
:1053B0001B6822F02A029A607B681B681A687B6867
:1053C0001B6842F001021A60786800F0D3FA0346C5
:1053D00018460837BD4680BD2DE9B04F8AB000AFF2
:1053E000F860002387F82230FB689A68FB681B6925
:1053F0001A43FB685B691A43FB68DB6913437B62F2
:10540000FB681B681A68B44B1340FA681268796A23
:105410000B431360FB681B685B6823F44051FB6817
:10542000DA68FB681B680A435A60FB689B697B6209
:10543000FB681B68A94A934204D0FB681B6A7A6A1E
:1054400013437B62FB681B689B6823F43061FB6835
:105450001B687A6A0A439A60FB681B68A04A9342F9
:1054600026D1A04BD3F8883003F00303032B1BD8BD
:1054700001A252F823F000BF895400089954000893
:1054800091540008A1540008012387F8233080E0DC
:10549000022387F823307CE0042387F8233078E068
:1054A000082387F8233074E0102387F8233070E056
:1054B000FB681B688C4A934238D18A4BD3F88830FA
:1054C00003F00C030C2B2DD801A252F823F000BFDF
:1054D00005550008255500082555000825550008E4
:1054E00015550008255500082555000825550008C4
:1054F0000D550008255500082555000825550008BC
:105500001D550008002387F8233042E0022387F866
:1055100023303EE0042387F823303AE0082387F85D
:10552000233036E0102387F8233032E0FB681B6815
:105530006A4A93422AD16B4BD3F8883003F4406314
:10554000B3F5406F1AD0B3F5406F1BD8B3F5006FB9
:105550000CD0B3F5006F15D8002B03D0B3F5806FD6
:1055600008D00FE0002387F8233012E0022387F8E9
:1055700023300EE0042387F823300AE0082387F85D
:10558000233006E0102387F8233002E0102387F849
:105590002330FB681B68514A93427AD197F8233035
:1055A000082B24D801A252F823F000BFD1550008DF
:1055B000EF550008D9550008EF550008DF550008E1
:1055C000EF550008EF550008EF550008E7550008B3
:1055D000FEF754F8F86110E0444BFB610DE0FDF775
:1055E000B5FFF86109E04FF40043FB6105E00023DB
:1055F000FB61012387F8223000BFFB69002B00F01C
:105600000781FB685A6813465B001344FA699A42A3
:1056100005D3FB685B681B03FA699A4203D901232F
:1056200087F82230F4E0FB6900221C4615464FF053
:1056300000024FF000032B0243EA14632202F968D0
:105640004968490800208846814612EB080A43EB66
:10565000090BFB685B6800223B607A60D7E9002396
:1056600050465946FBF710FB02460B461346BB61FA
:10567000BB69B3F5407F08D3BB69B3F5801F04D283
:10568000FB681B68BA69DA60C2E0012387F8223040
:10569000BEE0FB68DB69B3F5004F6AD197F82330B1
:1056A000082B34D801A252F823F000BFD1560008CD
:1056B000F1560008F95600080F570008FF56000879
:1056C0000F5700080F5700080F570008075700082A
:1056D000FDF7D4FFF86120E0F369FFEF00800040A0
:1056E0000038014000100240004400400024F40053
:1056F000FDF7DAFFF86110E04C4BFB610DE0FDF7C0
:1057000025FFF86109E04FF40043FB6105E0002349
:10571000FB61012387F8223000BFFB69002B77D0A3
:10572000FB695A00FB685B685B081A44FB685B68AE
:10573000B2FBF3F3BB61BB690F2B16D9BB69B3F5A1
:10574000803F12D2BB699BB223F00F03FB82BB697F
:105750005B089BB203F007039AB2FB8A1343FB82F8
:10576000FB681B68FA8ADA6052E0012387F822306E
:105770004EE097F82330082B27D801A252F823F0E7
:10578000A5570008AD570008B5570008CB570008CB
:10579000BB570008CB570008CB570008CB57000871
:1057A000C3570008FDF76AFFF86114E0FDF77CFFBE
:1057B000F86110E01D4BFB610DE0FDF7C7FEF861DD
:1057C00009E04FF40043FB6105E00023FB61012386
:1057D00087F8223000BFFB69002B19D0FB685B689B
:1057E0005A08FB691A44FB685B68B2FBF3F3BB61C0
:1057F000BB690F2B09D9BB69B3F5803F05D2BB69E3
:105800009AB2FB681B68DA6002E0012387F8223055
:10581000FB6800229A66FB680022DA6697F822305D
:1058200018462837BD46BDE8B08F00BF0024F400FD
:1058300080B483B000AF78607B685B6A03F00803D4
:10584000002B0AD07B681B685B6823F400417B68EF
:105850005A6B7B681B680A435A607B685B6A03F07B
:105860000103002B0AD07B681B685B6823F40031BE
:105870007B689A6A7B681B680A435A607B685B6A2C
:1058800003F00203002B0AD07B681B685B6823F4DB
:1058900080317B68DA6A7B681B680A435A607B68E0
:1058A0005B6A03F00403002B0AD07B681B685B680B
:1058B00023F480217B681A6B7B681B680A435A605B
:1058C0007B685B6A03F01003002B0AD07B681B68BF
:1058D0009B6823F480517B689A6B7B681B680A4342
:1058E0009A607B685B6A03F02003002B0AD07B6818
:1058F0001B689B6823F400517B68DA6B7B681B682C
:105900000A439A607B685B6A03F04003002B1AD05D
:105910007B681B685B6823F480117B681A6C7B686A
:105920001B680A435A607B681B6CB3F5801F0AD161
:105930007B681B685B6823F4C0017B685A6C7B68DA
:105940001B680A435A607B685B6A03F08003002B84
:105950000AD07B681B685B6823F400217B689A6C23
:105960007B681B680A435A6000BF0C37BD465DF870
:10597000047B704780B598B002AF78607B680022E6
:10598000C3F88420FCF75EFB78657B681B681B68A6
:1059900003F00803082B2ED16FF07E4300937B6D3C
:1059A00000224FF40011786800F08CF80346002BB9
:1059B00021D07B681B68BB63BB6B53E8003F7B63F4
:1059C0007B6B23F080033B657B681B681A463B6D4D
:1059D0007B643A64396C7A6C41E80023FB63FB6BAF
:1059E000002BE6D17B682022DA677B68002283F8EF
:1059F0007820032362E07B681B681B6803F00403C4
:105A0000042B49D16FF07E4300937B6D00224FF44D
:105A10008001786800F056F80346002B3CD07B6884
:105A20001B687B627B6A53E8003F3B623B6A23F45E
:105A30009073FB647B681B681A46FB6C3B63FA62DD
:105A4000F96A3A6B41E80023BB62BB6A002BE6D1DE
:105A50007B681B6808333B613B6953E8003FFB6090
:105A6000FB6823F00103BB647B681B680833BA6CD6
:105A7000FA61BB61B969FA6941E800237B617B691E
:105A8000002BE5D17B682022C3F880207B680022B0
:105A900083F87820032311E07B682022DA677B6893
:105AA0002022C3F880207B6800221A667B680022CF
:105AB0005A667B68002283F87820002318465837FE
:105AC000BD4680BD80B584B000AFF860B9603B6072
:105AD0001346FB714FE0BB69B3F1FF3F4BD0FCF7BE
